{
  "contractName": "GestionPartes",
  "abi": [
    {
      "constant": true,
      "inputs": [],
      "name": "owner",
      "outputs": [
        {
          "name": "",
          "type": "address"
        }
      ],
      "payable": false,
      "stateMutability": "view",
      "type": "function"
    },
    {
      "constant": false,
      "inputs": [
        {
          "name": "newOwner",
          "type": "address"
        }
      ],
      "name": "transferOwnership",
      "outputs": [],
      "payable": false,
      "stateMutability": "nonpayable",
      "type": "function"
    },
    {
      "constant": true,
      "inputs": [
        {
          "name": "",
          "type": "address"
        }
      ],
      "name": "listaPartes",
      "outputs": [
        {
          "name": "usuarioA",
          "type": "address"
        },
        {
          "name": "usuarioB",
          "type": "address"
        },
        {
          "name": "matriculaA",
          "type": "string"
        },
        {
          "name": "matriculaB",
          "type": "string"
        },
        {
          "name": "dia",
          "type": "string"
        },
        {
          "name": "lugar",
          "type": "string"
        }
      ],
      "payable": false,
      "stateMutability": "view",
      "type": "function"
    },
    {
      "inputs": [],
      "payable": false,
      "stateMutability": "nonpayable",
      "type": "constructor"
    },
    {
      "constant": false,
      "inputs": [
        {
          "name": "_dia",
          "type": "string"
        },
        {
          "name": "_lugar",
          "type": "string"
        },
        {
          "name": "_matriculaA",
          "type": "string"
        },
        {
          "name": "_matriculaB",
          "type": "string"
        }
      ],
      "name": "crearParte",
      "outputs": [],
      "payable": false,
      "stateMutability": "nonpayable",
      "type": "function"
    },
    {
      "constant": false,
      "inputs": [
        {
          "name": "_creador",
          "type": "address"
        },
        {
          "name": "_aceptante",
          "type": "address"
        }
      ],
      "name": "aceptarParte",
      "outputs": [],
      "payable": false,
      "stateMutability": "nonpayable",
      "type": "function"
    },
    {
      "constant": true,
      "inputs": [
        {
          "name": "_creador",
          "type": "address"
        }
      ],
      "name": "getDia",
      "outputs": [
        {
          "name": "",
          "type": "string"
        }
      ],
      "payable": false,
      "stateMutability": "view",
      "type": "function"
    },
    {
      "constant": true,
      "inputs": [
        {
          "name": "_creador",
          "type": "address"
        }
      ],
      "name": "getLugar",
      "outputs": [
        {
          "name": "",
          "type": "string"
        }
      ],
      "payable": false,
      "stateMutability": "view",
      "type": "function"
    },
    {
      "constant": true,
      "inputs": [
        {
          "name": "_creador",
          "type": "address"
        }
      ],
      "name": "getMatriculaA",
      "outputs": [
        {
          "name": "",
          "type": "string"
        }
      ],
      "payable": false,
      "stateMutability": "view",
      "type": "function"
    },
    {
      "constant": true,
      "inputs": [
        {
          "name": "_creador",
          "type": "address"
        }
      ],
      "name": "getMatriculaB",
      "outputs": [
        {
          "name": "",
          "type": "string"
        }
      ],
      "payable": false,
      "stateMutability": "view",
      "type": "function"
    },
    {
      "constant": false,
      "inputs": [],
      "name": "paradaEmergencia",
      "outputs": [],
      "payable": false,
      "stateMutability": "nonpayable",
      "type": "function"
    }
  ],
  "bytecode": "0x60806040526000600360006101000a81548160ff02191690831515021790555034801561002b57600080fd5b50336000806101000a81548173ffffffffffffffffffffffffffffffffffffffff021916908373ffffffffffffffffffffffffffffffffffffffff1602179055506114c08061007b6000396000f3fe6080604052600436106100a4576000357c0100000000000000000000000000000000000000000000000000000000900463ffffffff1680631ec83e23146100a9578063218a9844146101735780634b40e68a146101e4578063813a1ccb146104715780638da5cb5b1461053b578063a5eb927514610592578063cdfe21e51461065c578063f2fde38b14610726578063f3f84ac214610777578063fe906d6c146109eb575b600080fd5b3480156100b557600080fd5b506100f8600480360360208110156100cc57600080fd5b81019080803573ffffffffffffffffffffffffffffffffffffffff169060200190929190505050610a02565b6040518080602001828103825283818151815260200191508051906020019080838360005b8381101561013857808201518184015260208101905061011d565b50505050905090810190601f1680156101655780820380516001836020036101000a031916815260200191505b509250505060405180910390f35b34801561017f57600080fd5b506101e26004803603604081101561019657600080fd5b81019080803573ffffffffffffffffffffffffffffffffffffffff169060200190929190803573ffffffffffffffffffffffffffffffffffffffff169060200190929190505050610ae6565b005b3480156101f057600080fd5b5061046f6004803603608081101561020757600080fd5b810190808035906020019064010000000081111561022457600080fd5b82018360208201111561023657600080fd5b8035906020019184600183028401116401000000008311171561025857600080fd5b91908080601f016020809104026020016040519081016040528093929190818152602001838380828437600081840152601f19601f820116905080830192505050505050509192919290803590602001906401000000008111156102bb57600080fd5b8201836020820111156102cd57600080fd5b803590602001918460018302840111640100000000831117156102ef57600080fd5b91908080601f016020809104026020016040519081016040528093929190818152602001838380828437600081840152601f19601f8201169050808301925050505050505091929192908035906020019064010000000081111561035257600080fd5b82018360208201111561036457600080fd5b8035906020019184600183028401116401000000008311171561038657600080fd5b91908080601f016020809104026020016040519081016040528093929190818152602001838380828437600081840152601f19601f820116905080830192505050505050509192919290803590602001906401000000008111156103e957600080fd5b8201836020820111156103fb57600080fd5b8035906020019184600183028401116401000000008311171561041d57600080fd5b91908080601f016020809104026020016040519081016040528093929190818152602001838380828437600081840152601f19601f820116905080830192505050505050509192919290505050610b6b565b005b34801561047d57600080fd5b506104c06004803603602081101561049457600080fd5b81019080803573ffffffffffffffffffffffffffffffffffffffff169060200190929190505050610d1d565b6040518080602001828103825283818151815260200191508051906020019080838360005b838110156105005780820151818401526020810190506104e5565b50505050905090810190601f16801561052d5780820380516001836020036101000a031916815260200191505b509250505060405180910390f35b34801561054757600080fd5b50610550610e01565b604051808273ffffffffffffffffffffffffffffffffffffffff1673ffffffffffffffffffffffffffffffffffffffff16815260200191505060405180910390f35b34801561059e57600080fd5b506105e1600480360360208110156105b557600080fd5b81019080803573ffffffffffffffffffffffffffffffffffffffff169060200190929190505050610e26565b6040518080602001828103825283818151815260200191508051906020019080838360005b83811015610621578082015181840152602081019050610606565b50505050905090810190601f16801561064e5780820380516001836020036101000a031916815260200191505b509250505060405180910390f35b34801561066857600080fd5b506106ab6004803603602081101561067f57600080fd5b81019080803573ffffffffffffffffffffffffffffffffffffffff169060200190929190505050610f0a565b6040518080602001828103825283818151815260200191508051906020019080838360005b838110156106eb5780820151818401526020810190506106d0565b50505050905090810190601f1680156107185780820380516001836020036101000a031916815260200191505b509250505060405180910390f35b34801561073257600080fd5b506107756004803603602081101561074957600080fd5b81019080803573ffffffffffffffffffffffffffffffffffffffff169060200190929190505050610fee565b005b34801561078357600080fd5b506107c66004803603602081101561079a57600080fd5b81019080803573ffffffffffffffffffffffffffffffffffffffff16906020019092919050505061108c565b604051808773ffffffffffffffffffffffffffffffffffffffff1673ffffffffffffffffffffffffffffffffffffffff1681526020018673ffffffffffffffffffffffffffffffffffffffff1673ffffffffffffffffffffffffffffffffffffffff16815260200180602001806020018060200180602001858103855289818151815260200191508051906020019080838360005b8381101561087657808201518184015260208101905061085b565b50505050905090810190601f1680156108a35780820380516001836020036101000a031916815260200191505b50858103845288818151815260200191508051906020019080838360005b838110156108dc5780820151818401526020810190506108c1565b50505050905090810190601f1680156109095780820380516001836020036101000a031916815260200191505b50858103835287818151815260200191508051906020019080838360005b83811015610942578082015181840152602081019050610927565b50505050905090810190601f16801561096f5780820380516001836020036101000a031916815260200191505b50858103825286818151815260200191508051906020019080838360005b838110156109a857808201518184015260208101905061098d565b50505050905090810190601f1680156109d55780820380516001836020036101000a031916815260200191505b509a505050505050505050505060405180910390f35b3480156109f757600080fd5b50610a00611368565b005b6060600160008373ffffffffffffffffffffffffffffffffffffffff1673ffffffffffffffffffffffffffffffffffffffff1681526020019081526020016000206002018054600181600116156101000203166002900480601f016020809104026020016040519081016040528092919081815260200182805460018160011615610100020316600290048015610ada5780601f10610aaf57610100808354040283529160200191610ada565b820191906000526020600020905b815481529060010190602001808311610abd57829003601f168201915b50505050509050919050565b80600160008473ffffffffffffffffffffffffffffffffffffffff1673ffffffffffffffffffffffffffffffffffffffff16815260200190815260200160002060010160006101000a81548173ffffffffffffffffffffffffffffffffffffffff021916908373ffffffffffffffffffffffffffffffffffffffff1602179055505050565b600360009054906101000a900460ff161515610d17576000600160003373ffffffffffffffffffffffffffffffffffffffff1673ffffffffffffffffffffffffffffffffffffffff1681526020019081526020016000209050338160000160006101000a81548173ffffffffffffffffffffffffffffffffffffffff021916908373ffffffffffffffffffffffffffffffffffffffff16021790555060008160010160006101000a81548173ffffffffffffffffffffffffffffffffffffffff021916908373ffffffffffffffffffffffffffffffffffffffff16021790555084816004019080519060200190610c639291906113ef565b5083816005019080519060200190610c7c9291906113ef565b5082816002019080519060200190610c959291906113ef565b5081816003019080519060200190610cae9291906113ef565b5060023390806001815401808255809150509060018203906000526020600020016000909192909190916101000a81548173ffffffffffffffffffffffffffffffffffffffff021916908373ffffffffffffffffffffffffffffffffffffffff16021790555050505b50505050565b6060600160008373ffffffffffffffffffffffffffffffffffffffff1673ffffffffffffffffffffffffffffffffffffffff1681526020019081526020016000206003018054600181600116156101000203166002900480601f016020809104026020016040519081016040528092919081815260200182805460018160011615610100020316600290048015610df55780601f10610dca57610100808354040283529160200191610df5565b820191906000526020600020905b815481529060010190602001808311610dd857829003601f168201915b50505050509050919050565b6000809054906101000a900473ffffffffffffffffffffffffffffffffffffffff1681565b6060600160008373ffffffffffffffffffffffffffffffffffffffff1673ffffffffffffffffffffffffffffffffffffffff1681526020019081526020016000206005018054600181600116156101000203166002900480601f016020809104026020016040519081016040528092919081815260200182805460018160011615610100020316600290048015610efe5780601f10610ed357610100808354040283529160200191610efe565b820191906000526020600020905b815481529060010190602001808311610ee157829003601f168201915b50505050509050919050565b6060600160008373ffffffffffffffffffffffffffffffffffffffff1673ffffffffffffffffffffffffffffffffffffffff1681526020019081526020016000206004018054600181600116156101000203166002900480601f016020809104026020016040519081016040528092919081815260200182805460018160011615610100020316600290048015610fe25780601f10610fb757610100808354040283529160200191610fe2565b820191906000526020600020905b815481529060010190602001808311610fc557829003601f168201915b50505050509050919050565b6000809054906101000a900473ffffffffffffffffffffffffffffffffffffffff1673ffffffffffffffffffffffffffffffffffffffff163373ffffffffffffffffffffffffffffffffffffffff1614151561104957600080fd5b806000806101000a81548173ffffffffffffffffffffffffffffffffffffffff021916908373ffffffffffffffffffffffffffffffffffffffff16021790555050565b60016020528060005260406000206000915090508060000160009054906101000a900473ffffffffffffffffffffffffffffffffffffffff16908060010160009054906101000a900473ffffffffffffffffffffffffffffffffffffffff1690806002018054600181600116156101000203166002900480601f0160208091040260200160405190810160405280929190818152602001828054600181600116156101000203166002900480156111845780601f1061115957610100808354040283529160200191611184565b820191906000526020600020905b81548152906001019060200180831161116757829003601f168201915b505050505090806003018054600181600116156101000203166002900480601f0160208091040260200160405190810160405280929190818152602001828054600181600116156101000203166002900480156112225780601f106111f757610100808354040283529160200191611222565b820191906000526020600020905b81548152906001019060200180831161120557829003601f168201915b505050505090806004018054600181600116156101000203166002900480601f0160208091040260200160405190810160405280929190818152602001828054600181600116156101000203166002900480156112c05780601f10611295576101008083540402835291602001916112c0565b820191906000526020600020905b8154815290600101906020018083116112a357829003601f168201915b505050505090806005018054600181600116156101000203166002900480601f01602080910402602001604051908101604052809291908181526020018280546001816001161561010002031660029004801561135e5780601f106113335761010080835404028352916020019161135e565b820191906000526020600020905b81548152906001019060200180831161134157829003601f168201915b5050505050905086565b6000809054906101000a900473ffffffffffffffffffffffffffffffffffffffff1673ffffffffffffffffffffffffffffffffffffffff163373ffffffffffffffffffffffffffffffffffffffff161415156113c357600080fd5b600360009054906101000a900460ff1615600360006101000a81548160ff021916908315150217905550565b828054600181600116156101000203166002900490600052602060002090601f016020900481019282601f1061143057805160ff191683800117855561145e565b8280016001018555821561145e579182015b8281111561145d578251825591602001919060010190611442565b5b50905061146b919061146f565b5090565b61149191905b8082111561148d576000816000905550600101611475565b5090565b9056fea165627a7a72305820ccf051468eceb5cf60ad66f5d437674380a356f30336b368d2c718f87576990b0029",
  "source": "//pragma solidity ^0.4.17;\n\nimport \"./Owned.sol\";\n\n/** @title Gestion de Partes. */\ncontract GestionPartes is Owned {\n  \n    struct Parte {\n        address usuarioA;\n        address usuarioB;\n        string matriculaA;\n        string matriculaB;\n        string dia;\n        string lugar;\n    }\n  \n    mapping(address => Parte) public listaPartes;\n  \n    address[] direccionesPartes;\n\n    bool private parada = false;\n\n    modifier noParada {\n        if(!parada) \n        _;\n    }\n\n    constructor() public {\n        \n    }\n\n    /** @dev Crea un nuevo parte asociado a la dirección que ejecuta la tx.\n      * @param _dia Dia del siniestro.\n      * @param _lugar Lugar del siniestro.\n      * @param _matriculaA Matricula del vehiculo del creador del parte.\n      * @param _matriculaB Matricula del vehiculo implicado en el siniestro.\n      */\n    function crearParte(\n        string memory _dia, \n        string memory _lugar, \n        string memory _matriculaA, \n        string memory _matriculaB) public noParada {\n\n        Parte storage nuevoParte = listaPartes[msg.sender];\n    \n        nuevoParte.usuarioA = msg.sender;\n        nuevoParte.usuarioB = address(0);\n        nuevoParte.dia = _dia;\n        nuevoParte.lugar = _lugar;\n        nuevoParte.matriculaA = _matriculaA;\n        nuevoParte.matriculaB = _matriculaB;\n    \n        direccionesPartes.push(msg.sender);\n    }\n  \n    /** @dev Acepta un parte ya creado por el dueño del vehiculo implicado.\n      * @param _creador Address del creador del parte.\n      * @param _aceptante Adrress del aceptante del parte.\n      */\n    function aceptarParte(address _creador, address _aceptante) public {\n        listaPartes[_creador].usuarioB = _aceptante;\n    }\n\n    /** @dev Devuelve el dia de un parte asociado a la dirección\n      * @param _creador Address del creador del parte.\n      * @return dia del parte\n      */\n    function getDia(address _creador) public view returns (string memory) {\n        return listaPartes[_creador].dia;\n    }\n\n    /** @dev Devuelve el lugar de un parte asociado a la dirección\n      * @param _creador Address del creador del parte.\n      * @return lugar del parte\n      */\n    function getLugar(address _creador) public view returns (string memory) {\n        return listaPartes[_creador].lugar;\n    }\n\n    /** @dev Devuelve la matricula del creador de un parte asociado a la dirección\n      * @param _creador Address del creador del parte.\n      * @return matriculaA del parte\n      */\n    function getMatriculaA(address _creador) public view returns (string memory) {\n        return listaPartes[_creador].matriculaA;\n    }\n\n    /** @dev Devuelve la matricula del otro vehiculo del parte asociado a la dirección\n      * @param _creador Address del creador del parte.\n      * @return matriculaB del parte\n      */\n    function getMatriculaB(address _creador) public view returns (string memory) {\n        return listaPartes[_creador].matriculaB;\n    }\n\n    /** @dev Actualiza la variable responsable de parar funcionalidades en el smart contract\n      */\n    function paradaEmergencia() public onlyOwner {\n        parada = !parada;\n    }\n}",
  "sourcePath": "/Users/juanfornell/Repositories/MasterUAH/DyD/Modulo4/PEC3/contracts/GestionPartes.sol",
  "compiler": {
    "name": "solc",
    "version": "0.5.0+commit.1d4f565a.Emscripten.clang"
  },
  "schemaVersion": "3.0.2",
  "updatedAt": "2019-03-03T20:01:16.134Z",
  "devdoc": {
    "methods": {
      "aceptarParte(address,address)": {
        "details": "Acepta un parte ya creado por el dueño del vehiculo implicado.",
        "params": {
          "_aceptante": "Adrress del aceptante del parte.",
          "_creador": "Address del creador del parte."
        }
      },
      "crearParte(string,string,string,string)": {
        "details": "Crea un nuevo parte asociado a la dirección que ejecuta la tx.",
        "params": {
          "_dia": "Dia del siniestro.",
          "_lugar": "Lugar del siniestro.",
          "_matriculaA": "Matricula del vehiculo del creador del parte.",
          "_matriculaB": "Matricula del vehiculo implicado en el siniestro."
        }
      },
      "getDia(address)": {
        "details": "Devuelve el dia de un parte asociado a la dirección",
        "params": {
          "_creador": "Address del creador del parte."
        },
        "return": "dia del parte"
      },
      "getLugar(address)": {
        "details": "Devuelve el lugar de un parte asociado a la dirección",
        "params": {
          "_creador": "Address del creador del parte."
        },
        "return": "lugar del parte"
      },
      "getMatriculaA(address)": {
        "details": "Devuelve la matricula del creador de un parte asociado a la dirección",
        "params": {
          "_creador": "Address del creador del parte."
        },
        "return": "matriculaA del parte"
      },
      "getMatriculaB(address)": {
        "details": "Devuelve la matricula del otro vehiculo del parte asociado a la dirección",
        "params": {
          "_creador": "Address del creador del parte."
        },
        "return": "matriculaB del parte"
      },
      "paradaEmergencia()": {
        "details": "Actualiza la variable responsable de parar funcionalidades en el smart contract"
      }
    },
    "title": "Gestion de Partes. "
  },
  "userdoc": {
    "methods": {}
  }
}