{
  "contractName": "Voting",
  "abi": [
    {
      "constant": true,
      "inputs": [],
      "name": "candidatesCount",
      "outputs": [
        {
          "name": "",
          "type": "uint256"
        }
      ],
      "payable": false,
      "stateMutability": "view",
      "type": "function"
    },
    {
      "constant": true,
      "inputs": [
        {
          "name": "",
          "type": "uint256"
        }
      ],
      "name": "candidates",
      "outputs": [
        {
          "name": "id",
          "type": "uint256"
        },
        {
          "name": "name",
          "type": "string"
        },
        {
          "name": "voteCount",
          "type": "uint256"
        }
      ],
      "payable": false,
      "stateMutability": "view",
      "type": "function"
    },
    {
      "constant": false,
      "inputs": [],
      "name": "unpause",
      "outputs": [],
      "payable": false,
      "stateMutability": "nonpayable",
      "type": "function"
    },
    {
      "constant": true,
      "inputs": [],
      "name": "paused",
      "outputs": [
        {
          "name": "",
          "type": "bool"
        }
      ],
      "payable": false,
      "stateMutability": "view",
      "type": "function"
    },
    {
      "constant": false,
      "inputs": [],
      "name": "pause",
      "outputs": [],
      "payable": false,
      "stateMutability": "nonpayable",
      "type": "function"
    },
    {
      "constant": true,
      "inputs": [],
      "name": "owner",
      "outputs": [
        {
          "name": "",
          "type": "address"
        }
      ],
      "payable": false,
      "stateMutability": "view",
      "type": "function"
    },
    {
      "constant": true,
      "inputs": [
        {
          "name": "",
          "type": "address"
        }
      ],
      "name": "voters",
      "outputs": [
        {
          "name": "",
          "type": "bool"
        }
      ],
      "payable": false,
      "stateMutability": "view",
      "type": "function"
    },
    {
      "constant": false,
      "inputs": [
        {
          "name": "newOwner",
          "type": "address"
        }
      ],
      "name": "transferOwnership",
      "outputs": [],
      "payable": false,
      "stateMutability": "nonpayable",
      "type": "function"
    },
    {
      "inputs": [],
      "payable": false,
      "stateMutability": "nonpayable",
      "type": "constructor"
    },
    {
      "anonymous": false,
      "inputs": [
        {
          "indexed": true,
          "name": "_candidateId",
          "type": "uint256"
        }
      ],
      "name": "votedEvent",
      "type": "event"
    },
    {
      "anonymous": false,
      "inputs": [],
      "name": "Pause",
      "type": "event"
    },
    {
      "anonymous": false,
      "inputs": [],
      "name": "Unpause",
      "type": "event"
    },
    {
      "anonymous": false,
      "inputs": [
        {
          "indexed": true,
          "name": "previousOwner",
          "type": "address"
        },
        {
          "indexed": true,
          "name": "newOwner",
          "type": "address"
        }
      ],
      "name": "OwnershipTransferred",
      "type": "event"
    },
    {
      "constant": false,
      "inputs": [
        {
          "name": "_candidateId",
          "type": "uint256"
        }
      ],
      "name": "vote",
      "outputs": [],
      "payable": false,
      "stateMutability": "nonpayable",
      "type": "function"
    }
  ],
  "bytecode": "0x608060405260008060146101000a81548160ff02191690831515021790555034801561002a57600080fd5b50336000806101000a81548173ffffffffffffffffffffffffffffffffffffffff021916908373ffffffffffffffffffffffffffffffffffffffff1602179055506100b86040805190810160405280600e81526020017f506564726f2053c3a16e6368657a00000000000000000000000000000000000081525061010a640100000000026401000000009004565b6101056040805190810160405280600d81526020017f4d617269616e6f2052616a6f790000000000000000000000000000000000000081525061010a640100000000026401000000009004565b610261565b61012d600160035461019e6401000000000261084c179091906401000000009004565b6003819055506060604051908101604052806003548152602001828152602001600081525060026000600354815260200190815260200160002060008201518160000155602082015181600101908051906020019061018d9291906101bc565b506040820151816002015590505050565b60008082840190508381101515156101b257fe5b8091505092915050565b828054600181600116156101000203166002900490600052602060002090601f016020900481019282601f106101fd57805160ff191683800117855561022b565b8280016001018555821561022b579182015b8281111561022a57825182559160200191906001019061020f565b5b509050610238919061023c565b5090565b61025e91905b8082111561025a576000816000905550600101610242565b5090565b90565b610896806102706000396000f300608060405260043610610099576000357c0100000000000000000000000000000000000000000000000000000000900463ffffffff1680630121b93f1461009e5780632d35a8a2146100cb5780633477ee2e146100f65780633f4ba83a146101aa5780635c975abb146101c15780638456cb59146101f05780638da5cb5b14610207578063a3ec138d1461025e578063f2fde38b146102b9575b600080fd5b3480156100aa57600080fd5b506100c9600480360381019080803590602001909291905050506102fc565b005b3480156100d757600080fd5b506100e0610459565b6040518082815260200191505060405180910390f35b34801561010257600080fd5b506101216004803603810190808035906020019092919050505061045f565b6040518084815260200180602001838152602001828103825284818151815260200191508051906020019080838360005b8381101561016d578082015181840152602081019050610152565b50505050905090810190601f16801561019a5780820380516001836020036101000a031916815260200191505b5094505050505060405180910390f35b3480156101b657600080fd5b506101bf610521565b005b3480156101cd57600080fd5b506101d66105df565b604051808215151515815260200191505060405180910390f35b3480156101fc57600080fd5b506102056105f2565b005b34801561021357600080fd5b5061021c6106b2565b604051808273ffffffffffffffffffffffffffffffffffffffff1673ffffffffffffffffffffffffffffffffffffffff16815260200191505060405180910390f35b34801561026a57600080fd5b5061029f600480360381019080803573ffffffffffffffffffffffffffffffffffffffff1690602001909291905050506106d7565b604051808215151515815260200191505060405180910390f35b3480156102c557600080fd5b506102fa600480360381019080803573ffffffffffffffffffffffffffffffffffffffff1690602001909291905050506106f7565b005b600060149054906101000a900460ff1615151561031857600080fd5b600160003373ffffffffffffffffffffffffffffffffffffffff1673ffffffffffffffffffffffffffffffffffffffff16815260200190815260200160002060009054906101000a900460ff1615151561037157600080fd5b60008111801561038357506003548111155b151561038e57600080fd5b60018060003373ffffffffffffffffffffffffffffffffffffffff1673ffffffffffffffffffffffffffffffffffffffff16815260200190815260200160002060006101000a81548160ff02191690831515021790555061040f6001600260008481526020019081526020016000206002015461084c90919063ffffffff16565b6002600083815260200190815260200160002060020181905550807ffff3c900d938d21d0990d786e819f29b8d05c1ef587b462b939609625b684b1660405160405180910390a250565b60035481565b6002602052806000526040600020600091509050806000015490806001018054600181600116156101000203166002900480601f0160208091040260200160405190810160405280929190818152602001828054600181600116156101000203166002900480156105115780601f106104e657610100808354040283529160200191610511565b820191906000526020600020905b8154815290600101906020018083116104f457829003601f168201915b5050505050908060020154905083565b6000809054906101000a900473ffffffffffffffffffffffffffffffffffffffff1673ffffffffffffffffffffffffffffffffffffffff163373ffffffffffffffffffffffffffffffffffffffff1614151561057c57600080fd5b600060149054906101000a900460ff16151561059757600080fd5b60008060146101000a81548160ff0219169083151502179055507f7805862f689e2f13df9f062ff482ad3ad112aca9e0847911ed832e158c525b3360405160405180910390a1565b600060149054906101000a900460ff1681565b6000809054906101000a900473ffffffffffffffffffffffffffffffffffffffff1673ffffffffffffffffffffffffffffffffffffffff163373ffffffffffffffffffffffffffffffffffffffff1614151561064d57600080fd5b600060149054906101000a900460ff1615151561066957600080fd5b6001600060146101000a81548160ff0219169083151502179055507f6985a02210a168e66602d3235cb6db0e70f92b3ba4d376a33c0f3d9434bff62560405160405180910390a1565b6000809054906101000a900473ffffffffffffffffffffffffffffffffffffffff1681565b60016020528060005260406000206000915054906101000a900460ff1681565b6000809054906101000a900473ffffffffffffffffffffffffffffffffffffffff1673ffffffffffffffffffffffffffffffffffffffff163373ffffffffffffffffffffffffffffffffffffffff1614151561075257600080fd5b600073ffffffffffffffffffffffffffffffffffffffff168173ffffffffffffffffffffffffffffffffffffffff161415151561078e57600080fd5b8073ffffffffffffffffffffffffffffffffffffffff166000809054906101000a900473ffffffffffffffffffffffffffffffffffffffff1673ffffffffffffffffffffffffffffffffffffffff167f8be0079c531659141344cd1fd0a4f28419497f9722a3daafe3b4186f6b6457e060405160405180910390a3806000806101000a81548173ffffffffffffffffffffffffffffffffffffffff021916908373ffffffffffffffffffffffffffffffffffffffff16021790555050565b600080828401905083811015151561086057fe5b80915050929150505600a165627a7a723058206095231c48cdb243e67479d3ad0a6c1f1a65b671b7e791c41988f87ed15bf9d00029",
  "source": "pragma solidity ^0.4.24;\nimport 'zeppelin/contracts/math/SafeMath.sol';\nimport 'zeppelin/contracts/lifecycle/Pausable.sol';\n\n/** @title Voting contract. */\ncontract Voting is Pausable{\n    using SafeMath for uint;\n\n    struct Candidate {\n        uint id;\n        string name;\n        uint voteCount;\n    }\n\n    mapping(address => bool) public voters;\n    mapping(uint => Candidate) public candidates;\n    uint public candidatesCount;\n\n    event votedEvent (\n        uint indexed _candidateId\n    );\n\n    /** @dev Function constructor. Iniciate the candidate's list.\n      */\n    constructor () public {\n        addCandidate(\"Pedro S치nchez\");\n        addCandidate(\"Mariano Rajoy\");\n    }\n\n    /** @dev Add candidates to the list of candidates.\n      * @param _name Name of the candidate.\n      */\n    function addCandidate (string _name) private {\n        candidatesCount = candidatesCount.add(1);\n        candidates[candidatesCount] = Candidate(candidatesCount, _name, 0);\n    }\n\n    /** @dev Register a vote for one candidate.\n      * @param _candidateId Id of the candidate.\n      */\n    function vote (uint _candidateId) whenNotPaused public {\n\n        require(!voters[msg.sender]);\n        require(_candidateId > 0 && _candidateId <= candidatesCount);\n\n        voters[msg.sender] = true;\n        candidates[_candidateId].voteCount = candidates[_candidateId].voteCount .add(1);\n\n        emit votedEvent(_candidateId);\n    }\n}",
  "sourcePath": "/Users/juanfornell/Repositories/MasterUAH/DyD/Modulo4/voting/contracts/Voting.sol",
  "compiler": {
    "name": "solc",
    "version": "0.4.24+commit.e67f0147.Emscripten.clang"
  },
  "schemaVersion": "2.0.1",
  "updatedAt": "2018-12-16T21:30:44.001Z"
}